{
  "_format": "hh-sol-artifact-1",
  "contractName": "MediChain",
  "sourceName": "contracts/MediChain.sol",
  "abi": [
    {
      "inputs": [],
      "stateMutability": "nonpayable",
      "type": "constructor"
    },
    {
      "anonymous": false,
      "inputs": [
        {
          "indexed": false,
          "internalType": "string",
          "name": "batchId",
          "type": "string"
        },
        {
          "indexed": false,
          "internalType": "address",
          "name": "manufacturer",
          "type": "address"
        }
      ],
      "name": "MedicineRegistered",
      "type": "event"
    },
    {
      "anonymous": false,
      "inputs": [
        {
          "indexed": false,
          "internalType": "string",
          "name": "batchId",
          "type": "string"
        },
        {
          "indexed": false,
          "internalType": "address",
          "name": "pharmacy",
          "type": "address"
        }
      ],
      "name": "ReceiptConfirmed",
      "type": "event"
    },
    {
      "anonymous": false,
      "inputs": [
        {
          "indexed": false,
          "internalType": "string",
          "name": "batchId",
          "type": "string"
        },
        {
          "indexed": false,
          "internalType": "address",
          "name": "from",
          "type": "address"
        },
        {
          "indexed": false,
          "internalType": "address",
          "name": "to",
          "type": "address"
        },
        {
          "indexed": false,
          "internalType": "string",
          "name": "status",
          "type": "string"
        }
      ],
      "name": "ShipmentUpdated",
      "type": "event"
    },
    {
      "inputs": [],
      "name": "admin",
      "outputs": [
        {
          "internalType": "address",
          "name": "",
          "type": "address"
        }
      ],
      "stateMutability": "view",
      "type": "function"
    },
    {
      "inputs": [
        {
          "internalType": "address",
          "name": "_user",
          "type": "address"
        }
      ],
      "name": "approveDistributor",
      "outputs": [],
      "stateMutability": "nonpayable",
      "type": "function"
    },
    {
      "inputs": [
        {
          "internalType": "address",
          "name": "_user",
          "type": "address"
        }
      ],
      "name": "approveManufacturer",
      "outputs": [],
      "stateMutability": "nonpayable",
      "type": "function"
    },
    {
      "inputs": [
        {
          "internalType": "address",
          "name": "_user",
          "type": "address"
        }
      ],
      "name": "approvePharmacy",
      "outputs": [],
      "stateMutability": "nonpayable",
      "type": "function"
    },
    {
      "inputs": [
        {
          "internalType": "address",
          "name": "",
          "type": "address"
        }
      ],
      "name": "approved",
      "outputs": [
        {
          "internalType": "bool",
          "name": "",
          "type": "bool"
        }
      ],
      "stateMutability": "view",
      "type": "function"
    },
    {
      "inputs": [
        {
          "internalType": "string",
          "name": "_batchId",
          "type": "string"
        },
        {
          "internalType": "string",
          "name": "_location",
          "type": "string"
        }
      ],
      "name": "confirmReceipt",
      "outputs": [],
      "stateMutability": "nonpayable",
      "type": "function"
    },
    {
      "inputs": [
        {
          "internalType": "string",
          "name": "_batchId",
          "type": "string"
        }
      ],
      "name": "getHistory",
      "outputs": [
        {
          "components": [
            {
              "internalType": "address",
              "name": "from",
              "type": "address"
            },
            {
              "internalType": "address",
              "name": "to",
              "type": "address"
            },
            {
              "internalType": "string",
              "name": "location",
              "type": "string"
            },
            {
              "internalType": "uint256",
              "name": "timestamp",
              "type": "uint256"
            },
            {
              "internalType": "string",
              "name": "status",
              "type": "string"
            }
          ],
          "internalType": "struct MediChain.Transaction[]",
          "name": "",
          "type": "tuple[]"
        }
      ],
      "stateMutability": "view",
      "type": "function"
    },
    {
      "inputs": [
        {
          "internalType": "string",
          "name": "_batchId",
          "type": "string"
        }
      ],
      "name": "getMedicine",
      "outputs": [
        {
          "components": [
            {
              "internalType": "string",
              "name": "name",
              "type": "string"
            },
            {
              "internalType": "string",
              "name": "batchId",
              "type": "string"
            },
            {
              "internalType": "string",
              "name": "manufacturerName",
              "type": "string"
            },
            {
              "internalType": "string",
              "name": "licenseNo",
              "type": "string"
            },
            {
              "internalType": "uint256",
              "name": "quantity",
              "type": "uint256"
            },
            {
              "internalType": "uint256",
              "name": "manufactureDate",
              "type": "uint256"
            },
            {
              "internalType": "uint256",
              "name": "expiryDate",
              "type": "uint256"
            },
            {
              "internalType": "string",
              "name": "description",
              "type": "string"
            },
            {
              "internalType": "address",
              "name": "manufacturer",
              "type": "address"
            },
            {
              "internalType": "string",
              "name": "qrHash",
              "type": "string"
            },
            {
              "internalType": "string",
              "name": "imageUrl",
              "type": "string"
            },
            {
              "internalType": "bool",
              "name": "exists",
              "type": "bool"
            }
          ],
          "internalType": "struct MediChain.Medicine",
          "name": "",
          "type": "tuple"
        }
      ],
      "stateMutability": "view",
      "type": "function"
    },
    {
      "inputs": [
        {
          "internalType": "string",
          "name": "",
          "type": "string"
        },
        {
          "internalType": "uint256",
          "name": "",
          "type": "uint256"
        }
      ],
      "name": "history",
      "outputs": [
        {
          "internalType": "address",
          "name": "from",
          "type": "address"
        },
        {
          "internalType": "address",
          "name": "to",
          "type": "address"
        },
        {
          "internalType": "string",
          "name": "location",
          "type": "string"
        },
        {
          "internalType": "uint256",
          "name": "timestamp",
          "type": "uint256"
        },
        {
          "internalType": "string",
          "name": "status",
          "type": "string"
        }
      ],
      "stateMutability": "view",
      "type": "function"
    },
    {
      "inputs": [
        {
          "internalType": "string",
          "name": "",
          "type": "string"
        }
      ],
      "name": "medicines",
      "outputs": [
        {
          "internalType": "string",
          "name": "name",
          "type": "string"
        },
        {
          "internalType": "string",
          "name": "batchId",
          "type": "string"
        },
        {
          "internalType": "string",
          "name": "manufacturerName",
          "type": "string"
        },
        {
          "internalType": "string",
          "name": "licenseNo",
          "type": "string"
        },
        {
          "internalType": "uint256",
          "name": "quantity",
          "type": "uint256"
        },
        {
          "internalType": "uint256",
          "name": "manufactureDate",
          "type": "uint256"
        },
        {
          "internalType": "uint256",
          "name": "expiryDate",
          "type": "uint256"
        },
        {
          "internalType": "string",
          "name": "description",
          "type": "string"
        },
        {
          "internalType": "address",
          "name": "manufacturer",
          "type": "address"
        },
        {
          "internalType": "string",
          "name": "qrHash",
          "type": "string"
        },
        {
          "internalType": "string",
          "name": "imageUrl",
          "type": "string"
        },
        {
          "internalType": "bool",
          "name": "exists",
          "type": "bool"
        }
      ],
      "stateMutability": "view",
      "type": "function"
    },
    {
      "inputs": [
        {
          "internalType": "string",
          "name": "_name",
          "type": "string"
        },
        {
          "internalType": "string",
          "name": "_batchId",
          "type": "string"
        },
        {
          "internalType": "string",
          "name": "_manufacturerName",
          "type": "string"
        },
        {
          "internalType": "string",
          "name": "_licenseNo",
          "type": "string"
        },
        {
          "internalType": "uint256",
          "name": "_quantity",
          "type": "uint256"
        },
        {
          "internalType": "uint256",
          "name": "_manufactureDate",
          "type": "uint256"
        },
        {
          "internalType": "uint256",
          "name": "_expiryDate",
          "type": "uint256"
        },
        {
          "internalType": "string",
          "name": "_description",
          "type": "string"
        },
        {
          "internalType": "string",
          "name": "_qrHash",
          "type": "string"
        },
        {
          "internalType": "string",
          "name": "_imageUrl",
          "type": "string"
        }
      ],
      "name": "registerMedicine",
      "outputs": [],
      "stateMutability": "nonpayable",
      "type": "function"
    },
    {
      "inputs": [
        {
          "internalType": "address",
          "name": "",
          "type": "address"
        }
      ],
      "name": "roles",
      "outputs": [
        {
          "internalType": "enum MediChain.Role",
          "name": "",
          "type": "uint8"
        }
      ],
      "stateMutability": "view",
      "type": "function"
    },
    {
      "inputs": [
        {
          "internalType": "string",
          "name": "_batchId",
          "type": "string"
        },
        {
          "internalType": "address",
          "name": "_to",
          "type": "address"
        },
        {
          "internalType": "string",
          "name": "_location",
          "type": "string"
        },
        {
          "internalType": "string",
          "name": "_status",
          "type": "string"
        }
      ],
      "name": "updateShipment",
      "outputs": [],
      "stateMutability": "nonpayable",
      "type": "function"
    },
    {
      "inputs": [
        {
          "internalType": "string",
          "name": "_batchId",
          "type": "string"
        },
        {
          "internalType": "string",
          "name": "_qrHash",
          "type": "string"
        }
      ],
      "name": "verifyMedicine",
      "outputs": [
        {
          "internalType": "bool",
          "name": "isValid",
          "type": "bool"
        },
        {
          "internalType": "bool",
          "name": "isExpired",
          "type": "bool"
        },
        {
          "internalType": "string",
          "name": "name",
          "type": "string"
        },
        {
          "internalType": "string",
          "name": "manufacturer",
          "type": "string"
        },
        {
          "internalType": "string",
          "name": "imageUrl",
          "type": "string"
        }
      ],
      "stateMutability": "view",
      "type": "function"
    }
  ],
  "bytecode": "0x608060405234801561001057600080fd5b50336000806101000a81548173ffffffffffffffffffffffffffffffffffffffff021916908373ffffffffffffffffffffffffffffffffffffffff160217905550613a30806100606000396000f3fe608060405234801561001057600080fd5b50600436106100ea5760003560e01c8063b23910381161008c578063d8b964e611610066578063d8b964e61461027e578063e205bf8f146102ae578063e360736e146102ca578063f851a440146102fa576100ea565b8063b239103814610212578063b4a9fd541461022e578063be7bac0b14610262576100ea565b80635260d5da116100c85780635260d5da1461016257806390c634771461017e57806397808058146101ae57806399374642146101e2576100ea565b806321b9da99146100ef57806343f34b271461012a578063482aede514610146575b600080fd5b610109600480360381019061010491906128ba565b610318565b6040516101219c9b9a999897969594939291906129f7565b60405180910390f35b610144600480360381019061013f9190612b0e565b610773565b005b610160600480360381019061015b9190612b0e565b6108c3565b005b61017c60048036038101906101779190612b67565b610ac7565b005b610198600480360381019061019391906128ba565b610e6b565b6040516101a59190612eaf565b60405180910390f35b6101c860048036038101906101c39190612ed1565b61139f565b6040516101d9959493929190612f2d565b60405180910390f35b6101fc60048036038101906101f79190612b0e565b611558565b6040516102099190613005565b60405180910390f35b61022c60048036038101906102279190612b0e565b611578565b005b61024860048036038101906102439190613020565b61177c565b604051610259959493929190613098565b60405180910390f35b61027c60048036038101906102779190613100565b611d64565b005b61029860048036038101906102939190612b0e565b61205d565b6040516102a591906131bb565b60405180910390f35b6102c860048036038101906102c39190613020565b61207d565b005b6102e460048036038101906102df91906128ba565b6123fe565b6040516102f19190613315565b60405180910390f35b6103026126c3565b60405161030f9190613337565b60405180910390f35b60038180516020810182018051848252602083016020850120818352809550505050505060009150905080600001805461035190613381565b80601f016020809104026020016040519081016040528092919081815260200182805461037d90613381565b80156103ca5780601f1061039f576101008083540402835291602001916103ca565b820191906000526020600020905b8154815290600101906020018083116103ad57829003601f168201915b5050505050908060010180546103df90613381565b80601f016020809104026020016040519081016040528092919081815260200182805461040b90613381565b80156104585780601f1061042d57610100808354040283529160200191610458565b820191906000526020600020905b81548152906001019060200180831161043b57829003601f168201915b50505050509080600201805461046d90613381565b80601f016020809104026020016040519081016040528092919081815260200182805461049990613381565b80156104e65780601f106104bb576101008083540402835291602001916104e6565b820191906000526020600020905b8154815290600101906020018083116104c957829003601f168201915b5050505050908060030180546104fb90613381565b80601f016020809104026020016040519081016040528092919081815260200182805461052790613381565b80156105745780601f1061054957610100808354040283529160200191610574565b820191906000526020600020905b81548152906001019060200180831161055757829003601f168201915b50505050509080600401549080600501549080600601549080600701805461059b90613381565b80601f01602080910402602001604051908101604052809291908181526020018280546105c790613381565b80156106145780601f106105e957610100808354040283529160200191610614565b820191906000526020600020905b8154815290600101906020018083116105f757829003601f168201915b5050505050908060080160009054906101000a900473ffffffffffffffffffffffffffffffffffffffff169080600901805461064f90613381565b80601f016020809104026020016040519081016040528092919081815260200182805461067b90613381565b80156106c85780601f1061069d576101008083540402835291602001916106c8565b820191906000526020600020905b8154815290600101906020018083116106ab57829003601f168201915b50505050509080600a0180546106dd90613381565b80601f016020809104026020016040519081016040528092919081815260200182805461070990613381565b80156107565780601f1061072b57610100808354040283529160200191610756565b820191906000526020600020905b81548152906001019060200180831161073957829003601f168201915b50505050509080600b0160009054906101000a900460ff1690508c565b60008054906101000a900473ffffffffffffffffffffffffffffffffffffffff1673ffffffffffffffffffffffffffffffffffffffff163373ffffffffffffffffffffffffffffffffffffffff1614610801576040517f08c379a00000000000000000000000000000000000000000000000000000000081526004016107f8906133fe565b60405180910390fd5b60018060008373ffffffffffffffffffffffffffffffffffffffff1673ffffffffffffffffffffffffffffffffffffffff16815260200190815260200160002060006101000a81548160ff0219169083600381111561086357610862612f8e565b5b02179055506001600260008373ffffffffffffffffffffffffffffffffffffffff1673ffffffffffffffffffffffffffffffffffffffff16815260200190815260200160002060006101000a81548160ff02191690831515021790555050565b60018060038111156108d8576108d7612f8e565b5b600160003373ffffffffffffffffffffffffffffffffffffffff1673ffffffffffffffffffffffffffffffffffffffff16815260200190815260200160002060009054906101000a900460ff16600381111561093757610936612f8e565b5b14610977576040517f08c379a000000000000000000000000000000000000000000000000000000000815260040161096e9061346a565b60405180910390fd5b600260003373ffffffffffffffffffffffffffffffffffffffff1673ffffffffffffffffffffffffffffffffffffffff16815260200190815260200160002060009054906101000a900460ff16610a03576040517f08c379a00000000000000000000000000000000000000000000000000000000081526004016109fa906134d6565b60405180910390fd5b6002600160008473ffffffffffffffffffffffffffffffffffffffff1673ffffffffffffffffffffffffffffffffffffffff16815260200190815260200160002060006101000a81548160ff02191690836003811115610a6657610a65612f8e565b5b02179055506001600260008473ffffffffffffffffffffffffffffffffffffffff1673ffffffffffffffffffffffffffffffffffffffff16815260200190815260200160002060006101000a81548160ff0219169083151502179055505050565b6001806003811115610adc57610adb612f8e565b5b600160003373ffffffffffffffffffffffffffffffffffffffff1673ffffffffffffffffffffffffffffffffffffffff16815260200190815260200160002060009054906101000a900460ff166003811115610b3b57610b3a612f8e565b5b14610b7b576040517f08c379a0000000000000000000000000000000000000000000000000000000008152600401610b729061346a565b60405180910390fd5b600260003373ffffffffffffffffffffffffffffffffffffffff1673ffffffffffffffffffffffffffffffffffffffff16815260200190815260200160002060009054906101000a900460ff16610c07576040517f08c379a0000000000000000000000000000000000000000000000000000000008152600401610bfe906134d6565b60405180910390fd5b60038a604051610c179190613532565b9081526020016040518091039020600b0160009054906101000a900460ff1615610c76576040517f08c379a0000000000000000000000000000000000000000000000000000000008152600401610c6d90613595565b60405180910390fd5b6040518061018001604052808c81526020018b81526020018a81526020018981526020018881526020018781526020018681526020018581526020013373ffffffffffffffffffffffffffffffffffffffff1681526020018481526020018381526020016001151581525060038b604051610cf19190613532565b90815260200160405180910390206000820151816000019081610d149190613761565b506020820151816001019081610d2a9190613761565b506040820151816002019081610d409190613761565b506060820151816003019081610d569190613761565b506080820151816004015560a0820151816005015560c0820151816006015560e0820151816007019081610d8a9190613761565b506101008201518160080160006101000a81548173ffffffffffffffffffffffffffffffffffffffff021916908373ffffffffffffffffffffffffffffffffffffffff160217905550610120820151816009019081610de99190613761565b5061014082015181600a019081610e009190613761565b5061016082015181600b0160006101000a81548160ff0219169083151502179055509050507f1858cc42697fbcaa9be3c0e05f2fea4b7dfd870700e68184284af31baf8a02618a33604051610e56929190613833565b60405180910390a15050505050505050505050565b610e736126e7565b600382604051610e839190613532565b9081526020016040518091039020600b0160009054906101000a900460ff16610ee1576040517f08c379a0000000000000000000000000000000000000000000000000000000008152600401610ed8906138af565b60405180910390fd5b600382604051610ef19190613532565b908152602001604051809103902060405180610180016040529081600082018054610f1b90613381565b80601f0160208091040260200160405190810160405280929190818152602001828054610f4790613381565b8015610f945780601f10610f6957610100808354040283529160200191610f94565b820191906000526020600020905b815481529060010190602001808311610f7757829003601f168201915b50505050508152602001600182018054610fad90613381565b80601f0160208091040260200160405190810160405280929190818152602001828054610fd990613381565b80156110265780601f10610ffb57610100808354040283529160200191611026565b820191906000526020600020905b81548152906001019060200180831161100957829003601f168201915b5050505050815260200160028201805461103f90613381565b80601f016020809104026020016040519081016040528092919081815260200182805461106b90613381565b80156110b85780601f1061108d576101008083540402835291602001916110b8565b820191906000526020600020905b81548152906001019060200180831161109b57829003601f168201915b505050505081526020016003820180546110d190613381565b80601f01602080910402602001604051908101604052809291908181526020018280546110fd90613381565b801561114a5780601f1061111f5761010080835404028352916020019161114a565b820191906000526020600020905b81548152906001019060200180831161112d57829003601f168201915b5050505050815260200160048201548152602001600582015481526020016006820154815260200160078201805461118190613381565b80601f01602080910402602001604051908101604052809291908181526020018280546111ad90613381565b80156111fa5780601f106111cf576101008083540402835291602001916111fa565b820191906000526020600020905b8154815290600101906020018083116111dd57829003601f168201915b505050505081526020016008820160009054906101000a900473ffffffffffffffffffffffffffffffffffffffff1673ffffffffffffffffffffffffffffffffffffffff1673ffffffffffffffffffffffffffffffffffffffff16815260200160098201805461126990613381565b80601f016020809104026020016040519081016040528092919081815260200182805461129590613381565b80156112e25780601f106112b7576101008083540402835291602001916112e2565b820191906000526020600020905b8154815290600101906020018083116112c557829003601f168201915b50505050508152602001600a820180546112fb90613381565b80601f016020809104026020016040519081016040528092919081815260200182805461132790613381565b80156113745780601f1061134957610100808354040283529160200191611374565b820191906000526020600020905b81548152906001019060200180831161135757829003601f168201915b50505050508152602001600b820160009054906101000a900460ff1615151515815250509050919050565b60048280516020810182018051848252602083016020850120818352809550505050505081815481106113d157600080fd5b9060005260206000209060050201600091509150508060000160009054906101000a900473ffffffffffffffffffffffffffffffffffffffff16908060010160009054906101000a900473ffffffffffffffffffffffffffffffffffffffff169080600201805461144190613381565b80601f016020809104026020016040519081016040528092919081815260200182805461146d90613381565b80156114ba5780601f1061148f576101008083540402835291602001916114ba565b820191906000526020600020905b81548152906001019060200180831161149d57829003601f168201915b5050505050908060030154908060040180546114d590613381565b80601f016020809104026020016040519081016040528092919081815260200182805461150190613381565b801561154e5780601f106115235761010080835404028352916020019161154e565b820191906000526020600020905b81548152906001019060200180831161153157829003601f168201915b5050505050905085565b60016020528060005260406000206000915054906101000a900460ff1681565b600280600381111561158d5761158c612f8e565b5b600160003373ffffffffffffffffffffffffffffffffffffffff1673ffffffffffffffffffffffffffffffffffffffff16815260200190815260200160002060009054906101000a900460ff1660038111156115ec576115eb612f8e565b5b1461162c576040517f08c379a00000000000000000000000000000000000000000000000000000000081526004016116239061346a565b60405180910390fd5b600260003373ffffffffffffffffffffffffffffffffffffffff1673ffffffffffffffffffffffffffffffffffffffff16815260200190815260200160002060009054906101000a900460ff166116b8576040517f08c379a00000000000000000000000000000000000000000000000000000000081526004016116af906134d6565b60405180910390fd5b6003600160008473ffffffffffffffffffffffffffffffffffffffff1673ffffffffffffffffffffffffffffffffffffffff16815260200190815260200160002060006101000a81548160ff0219169083600381111561171b5761171a612f8e565b5b02179055506001600260008473ffffffffffffffffffffffffffffffffffffffff1673ffffffffffffffffffffffffffffffffffffffff16815260200190815260200160002060006101000a81548160ff0219169083151502179055505050565b60008060608060606003876040516117949190613532565b9081526020016040518091039020600b0160009054906101000a900460ff166117f95760008060405180602001604052806000815250604051806020016040528060008152506040518060200160405280600081525094509450945094509450611d5a565b600060038860405161180b9190613532565b90815260200160405180910390206040518061018001604052908160008201805461183590613381565b80601f016020809104026020016040519081016040528092919081815260200182805461186190613381565b80156118ae5780601f10611883576101008083540402835291602001916118ae565b820191906000526020600020905b81548152906001019060200180831161189157829003601f168201915b505050505081526020016001820180546118c790613381565b80601f01602080910402602001604051908101604052809291908181526020018280546118f390613381565b80156119405780601f1061191557610100808354040283529160200191611940565b820191906000526020600020905b81548152906001019060200180831161192357829003601f168201915b5050505050815260200160028201805461195990613381565b80601f016020809104026020016040519081016040528092919081815260200182805461198590613381565b80156119d25780601f106119a7576101008083540402835291602001916119d2565b820191906000526020600020905b8154815290600101906020018083116119b557829003601f168201915b505050505081526020016003820180546119eb90613381565b80601f0160208091040260200160405190810160405280929190818152602001828054611a1790613381565b8015611a645780601f10611a3957610100808354040283529160200191611a64565b820191906000526020600020905b815481529060010190602001808311611a4757829003601f168201915b50505050508152602001600482015481526020016005820154815260200160068201548152602001600782018054611a9b90613381565b80601f0160208091040260200160405190810160405280929190818152602001828054611ac790613381565b8015611b145780601f10611ae957610100808354040283529160200191611b14565b820191906000526020600020905b815481529060010190602001808311611af757829003601f168201915b505050505081526020016008820160009054906101000a900473ffffffffffffffffffffffffffffffffffffffff1673ffffffffffffffffffffffffffffffffffffffff1673ffffffffffffffffffffffffffffffffffffffff168152602001600982018054611b8390613381565b80601f0160208091040260200160405190810160405280929190818152602001828054611baf90613381565b8015611bfc5780601f10611bd157610100808354040283529160200191611bfc565b820191906000526020600020905b815481529060010190602001808311611bdf57829003601f168201915b50505050508152602001600a82018054611c1590613381565b80601f0160208091040260200160405190810160405280929190818152602001828054611c4190613381565b8015611c8e5780601f10611c6357610100808354040283529160200191611c8e565b820191906000526020600020905b815481529060010190602001808311611c7157829003601f168201915b50505050508152602001600b820160009054906101000a900460ff161515151581525050905086604051602001611cc59190613532565b60405160208183030381529060405280519060200120816101200151604051602001611cf19190613532565b6040516020818303038152906040528051906020012014611d2f57600080826000015183604001518461014001519550955095509550955050611d5a565b60008160c0015142119050600181836000015184604001518561014001519650965096509650965050505b9295509295909350565b600384604051611d749190613532565b9081526020016040518091039020600b0160009054906101000a900460ff16611dd2576040517f08c379a0000000000000000000000000000000000000000000000000000000008152600401611dc99061391b565b60405180910390fd5b6000600160003373ffffffffffffffffffffffffffffffffffffffff1673ffffffffffffffffffffffffffffffffffffffff16815260200190815260200160002060009054906101000a900460ff16905060016003811115611e3757611e36612f8e565b5b816003811115611e4a57611e49612f8e565b5b1480611e7a575060026003811115611e6557611e64612f8e565b5b816003811115611e7857611e77612f8e565b5b145b611eb9576040517f08c379a0000000000000000000000000000000000000000000000000000000008152600401611eb090613987565b60405180910390fd5b600485604051611ec99190613532565b90815260200160405180910390206040518060a001604052803373ffffffffffffffffffffffffffffffffffffffff1681526020018673ffffffffffffffffffffffffffffffffffffffff16815260200185815260200142815260200184815250908060018154018082558091505060019003906000526020600020906005020160009091909190915060008201518160000160006101000a81548173ffffffffffffffffffffffffffffffffffffffff021916908373ffffffffffffffffffffffffffffffffffffffff16021790555060208201518160010160006101000a81548173ffffffffffffffffffffffffffffffffffffffff021916908373ffffffffffffffffffffffffffffffffffffffff1602179055506040820151816002019081611ff69190613761565b506060820151816003015560808201518160040190816120169190613761565b5050507fc2c9cd63518bfef47860fdd6f1dac0c4434a8d0558255c10dc4120e7809c1a848533868560405161204e94939291906139a7565b60405180910390a15050505050565b60026020528060005260406000206000915054906101000a900460ff1681565b600380600381111561209257612091612f8e565b5b600160003373ffffffffffffffffffffffffffffffffffffffff1673ffffffffffffffffffffffffffffffffffffffff16815260200190815260200160002060009054906101000a900460ff1660038111156120f1576120f0612f8e565b5b14612131576040517f08c379a00000000000000000000000000000000000000000000000000000000081526004016121289061346a565b60405180910390fd5b600260003373ffffffffffffffffffffffffffffffffffffffff1673ffffffffffffffffffffffffffffffffffffffff16815260200190815260200160002060009054906101000a900460ff166121bd576040517f08c379a00000000000000000000000000000000000000000000000000000000081526004016121b4906134d6565b60405180910390fd5b6003836040516121cd9190613532565b9081526020016040518091039020600b0160009054906101000a900460ff1661222b576040517f08c379a00000000000000000000000000000000000000000000000000000000081526004016122229061391b565b60405180910390fd5b60048360405161223b9190613532565b90815260200160405180910390206040518060a001604052803373ffffffffffffffffffffffffffffffffffffffff1681526020013373ffffffffffffffffffffffffffffffffffffffff1681526020018481526020014281526020016040518060400160405280600981526020017f44656c6976657265640000000000000000000000000000000000000000000000815250815250908060018154018082558091505060019003906000526020600020906005020160009091909190915060008201518160000160006101000a81548173ffffffffffffffffffffffffffffffffffffffff021916908373ffffffffffffffffffffffffffffffffffffffff16021790555060208201518160010160006101000a81548173ffffffffffffffffffffffffffffffffffffffff021916908373ffffffffffffffffffffffffffffffffffffffff160217905550604082015181600201908161239d9190613761565b506060820151816003015560808201518160040190816123bd9190613761565b5050507fa8a3b07254d21c1b53866c0f936f14fb8a2de03fd4b5f7e83cb40f17a5932ca383336040516123f1929190613833565b60405180910390a1505050565b60606003826040516124109190613532565b9081526020016040518091039020600b0160009054906101000a900460ff1661246e576040517f08c379a0000000000000000000000000000000000000000000000000000000008152600401612465906138af565b60405180910390fd5b60048260405161247e9190613532565b9081526020016040518091039020805480602002602001604051908101604052809291908181526020016000905b828210156126b857838290600052602060002090600502016040518060a00160405290816000820160009054906101000a900473ffffffffffffffffffffffffffffffffffffffff1673ffffffffffffffffffffffffffffffffffffffff1673ffffffffffffffffffffffffffffffffffffffff1681526020016001820160009054906101000a900473ffffffffffffffffffffffffffffffffffffffff1673ffffffffffffffffffffffffffffffffffffffff1673ffffffffffffffffffffffffffffffffffffffff16815260200160028201805461258b90613381565b80601f01602080910402602001604051908101604052809291908181526020018280546125b790613381565b80156126045780601f106125d957610100808354040283529160200191612604565b820191906000526020600020905b8154815290600101906020018083116125e757829003601f168201915b505050505081526020016003820154815260200160048201805461262790613381565b80601f016020809104026020016040519081016040528092919081815260200182805461265390613381565b80156126a05780601f10612675576101008083540402835291602001916126a0565b820191906000526020600020905b81548152906001019060200180831161268357829003601f168201915b505050505081525050815260200190600101906124ac565b505050509050919050565b60008054906101000a900473ffffffffffffffffffffffffffffffffffffffff1681565b6040518061018001604052806060815260200160608152602001606081526020016060815260200160008152602001600081526020016000815260200160608152602001600073ffffffffffffffffffffffffffffffffffffffff16815260200160608152602001606081526020016000151581525090565b6000604051905090565b600080fd5b600080fd5b600080fd5b600080fd5b6000601f19601f8301169050919050565b7f4e487b7100000000000000000000000000000000000000000000000000000000600052604160045260246000fd5b6127c78261277e565b810181811067ffffffffffffffff821117156127e6576127e561278f565b5b80604052505050565b60006127f9612760565b905061280582826127be565b919050565b600067ffffffffffffffff8211156128255761282461278f565b5b61282e8261277e565b9050602081019050919050565b82818337600083830152505050565b600061285d6128588461280a565b6127ef565b90508281526020810184848401111561287957612878612779565b5b61288484828561283b565b509392505050565b600082601f8301126128a1576128a0612774565b5b81356128b184826020860161284a565b91505092915050565b6000602082840312156128d0576128cf61276a565b5b600082013567ffffffffffffffff8111156128ee576128ed61276f565b5b6128fa8482850161288c565b91505092915050565b600081519050919050565b600082825260208201905092915050565b60005b8381101561293d578082015181840152602081019050612922565b60008484015250505050565b600061295482612903565b61295e818561290e565b935061296e81856020860161291f565b6129778161277e565b840191505092915050565b6000819050919050565b61299581612982565b82525050565b600073ffffffffffffffffffffffffffffffffffffffff82169050919050565b60006129c68261299b565b9050919050565b6129d6816129bb565b82525050565b60008115159050919050565b6129f1816129dc565b82525050565b6000610180820190508181036000830152612a12818f612949565b90508181036020830152612a26818e612949565b90508181036040830152612a3a818d612949565b90508181036060830152612a4e818c612949565b9050612a5d608083018b61298c565b612a6a60a083018a61298c565b612a7760c083018961298c565b81810360e0830152612a898188612949565b9050612a996101008301876129cd565b818103610120830152612aac8186612949565b9050818103610140830152612ac18185612949565b9050612ad16101608301846129e8565b9d9c50505050505050505050505050565b612aeb816129bb565b8114612af657600080fd5b50565b600081359050612b0881612ae2565b92915050565b600060208284031215612b2457612b2361276a565b5b6000612b3284828501612af9565b91505092915050565b612b4481612982565b8114612b4f57600080fd5b50565b600081359050612b6181612b3b565b92915050565b6000806000806000806000806000806101408b8d031215612b8b57612b8a61276a565b5b60008b013567ffffffffffffffff811115612ba957612ba861276f565b5b612bb58d828e0161288c565b9a505060208b013567ffffffffffffffff811115612bd657612bd561276f565b5b612be28d828e0161288c565b99505060408b013567ffffffffffffffff811115612c0357612c0261276f565b5b612c0f8d828e0161288c565b98505060608b013567ffffffffffffffff811115612c3057612c2f61276f565b5b612c3c8d828e0161288c565b9750506080612c4d8d828e01612b52565b96505060a0612c5e8d828e01612b52565b95505060c0612c6f8d828e01612b52565b94505060e08b013567ffffffffffffffff811115612c9057612c8f61276f565b5b612c9c8d828e0161288c565b9350506101008b013567ffffffffffffffff811115612cbe57612cbd61276f565b5b612cca8d828e0161288c565b9250506101208b013567ffffffffffffffff811115612cec57612ceb61276f565b5b612cf88d828e0161288c565b9150509295989b9194979a5092959850565b600082825260208201905092915050565b6000612d2682612903565b612d308185612d0a565b9350612d4081856020860161291f565b612d498161277e565b840191505092915050565b612d5d81612982565b82525050565b612d6c816129bb565b82525050565b612d7b816129dc565b82525050565b6000610180830160008301518482036000860152612d9f8282612d1b565b91505060208301518482036020860152612db98282612d1b565b91505060408301518482036040860152612dd38282612d1b565b91505060608301518482036060860152612ded8282612d1b565b9150506080830151612e026080860182612d54565b5060a0830151612e1560a0860182612d54565b5060c0830151612e2860c0860182612d54565b5060e083015184820360e0860152612e408282612d1b565b915050610100830151612e57610100860182612d63565b50610120830151848203610120860152612e718282612d1b565b915050610140830151848203610140860152612e8d8282612d1b565b915050610160830151612ea4610160860182612d72565b508091505092915050565b60006020820190508181036000830152612ec98184612d81565b905092915050565b60008060408385031215612ee857612ee761276a565b5b600083013567ffffffffffffffff811115612f0657612f0561276f565b5b612f128582860161288c565b9250506020612f2385828601612b52565b9150509250929050565b600060a082019050612f4260008301886129cd565b612f4f60208301876129cd565b8181036040830152612f618186612949565b9050612f70606083018561298c565b8181036080830152612f828184612949565b90509695505050505050565b7f4e487b7100000000000000000000000000000000000000000000000000000000600052602160045260246000fd5b60048110612fce57612fcd612f8e565b5b50565b6000819050612fdf82612fbd565b919050565b6000612fef82612fd1565b9050919050565b612fff81612fe4565b82525050565b600060208201905061301a6000830184612ff6565b92915050565b600080604083850312156130375761303661276a565b5b600083013567ffffffffffffffff8111156130555761305461276f565b5b6130618582860161288c565b925050602083013567ffffffffffffffff8111156130825761308161276f565b5b61308e8582860161288c565b9150509250929050565b600060a0820190506130ad60008301886129e8565b6130ba60208301876129e8565b81810360408301526130cc8186612949565b905081810360608301526130e08185612949565b905081810360808301526130f48184612949565b90509695505050505050565b6000806000806080858703121561311a5761311961276a565b5b600085013567ffffffffffffffff8111156131385761313761276f565b5b6131448782880161288c565b945050602061315587828801612af9565b935050604085013567ffffffffffffffff8111156131765761317561276f565b5b6131828782880161288c565b925050606085013567ffffffffffffffff8111156131a3576131a261276f565b5b6131af8782880161288c565b91505092959194509250565b60006020820190506131d060008301846129e8565b92915050565b600081519050919050565b600082825260208201905092915050565b6000819050602082019050919050565b600060a08301600083015161321a6000860182612d63565b50602083015161322d6020860182612d63565b50604083015184820360408601526132458282612d1b565b915050606083015161325a6060860182612d54565b50608083015184820360808601526132728282612d1b565b9150508091505092915050565b600061328b8383613202565b905092915050565b6000602082019050919050565b60006132ab826131d6565b6132b581856131e1565b9350836020820285016132c7856131f2565b8060005b8581101561330357848403895281516132e4858261327f565b94506132ef83613293565b925060208a019950506001810190506132cb565b50829750879550505050505092915050565b6000602082019050818103600083015261332f81846132a0565b905092915050565b600060208201905061334c60008301846129cd565b92915050565b7f4e487b7100000000000000000000000000000000000000000000000000000000600052602260045260246000fd5b6000600282049050600182168061339957607f821691505b6020821081036133ac576133ab613352565b5b50919050565b7f4f6e6c792061646d696e00000000000000000000000000000000000000000000600082015250565b60006133e8600a8361290e565b91506133f3826133b2565b602082019050919050565b60006020820190508181036000830152613417816133db565b9050919050565b7f496e76616c696420726f6c650000000000000000000000000000000000000000600082015250565b6000613454600c8361290e565b915061345f8261341e565b602082019050919050565b6000602082019050818103600083015261348381613447565b9050919050565b7f4e6f7420617070726f7665640000000000000000000000000000000000000000600082015250565b60006134c0600c8361290e565b91506134cb8261348a565b602082019050919050565b600060208201905081810360008301526134ef816134b3565b9050919050565b600081905092915050565b600061350c82612903565b61351681856134f6565b935061352681856020860161291f565b80840191505092915050565b600061353e8284613501565b915081905092915050565b7f4261746368206578697374730000000000000000000000000000000000000000600082015250565b600061357f600c8361290e565b915061358a82613549565b602082019050919050565b600060208201905081810360008301526135ae81613572565b9050919050565b60008190508160005260206000209050919050565b60006020601f8301049050919050565b600082821b905092915050565b6000600883026136177fffffffffffffffffffffffffffffffffffffffffffffffffffffffffffffffff826135da565b61362186836135da565b95508019841693508086168417925050509392505050565b6000819050919050565b600061365e61365961365484612982565b613639565b612982565b9050919050565b6000819050919050565b61367883613643565b61368c61368482613665565b8484546135e7565b825550505050565b600090565b6136a1613694565b6136ac81848461366f565b505050565b5b818110156136d0576136c5600082613699565b6001810190506136b2565b5050565b601f821115613715576136e6816135b5565b6136ef846135ca565b810160208510156136fe578190505b61371261370a856135ca565b8301826136b1565b50505b505050565b600082821c905092915050565b60006137386000198460080261371a565b1980831691505092915050565b60006137518383613727565b9150826002028217905092915050565b61376a82612903565b67ffffffffffffffff8111156137835761378261278f565b5b61378d8254613381565b6137988282856136d4565b600060209050601f8311600181146137cb57600084156137b9578287015190505b6137c38582613745565b86555061382b565b601f1984166137d9866135b5565b60005b82811015613801578489015182556001820191506020850194506020810190506137dc565b8683101561381e578489015161381a601f891682613727565b8355505b6001600288020188555050505b505050505050565b6000604082019050818103600083015261384d8185612949565b905061385c60208301846129cd565b9392505050565b7f4e6f7420666f756e640000000000000000000000000000000000000000000000600082015250565b600061389960098361290e565b91506138a482613863565b602082019050919050565b600060208201905081810360008301526138c88161388c565b9050919050565b7f496e76616c696420626174636800000000000000000000000000000000000000600082015250565b6000613905600d8361290e565b9150613910826138cf565b602082019050919050565b60006020820190508181036000830152613934816138f8565b9050919050565b7f4e6f7420617574686f72697a6564000000000000000000000000000000000000600082015250565b6000613971600e8361290e565b915061397c8261393b565b602082019050919050565b600060208201905081810360008301526139a081613964565b9050919050565b600060808201905081810360008301526139c18187612949565b90506139d060208301866129cd565b6139dd60408301856129cd565b81810360608301526139ef8184612949565b90509594505050505056fea26469706673582212200879ad8945b042264684d2b1506b77266468370d016e7133e600bd79fdcebc3f64736f6c63430008140033",
  "linkReferences": {},
  "deployedLinkReferences": {}
}